{
  "contractName": "AuctionHouse",
  "abi": [
    {
      "inputs": [],
      "stateMutability": "nonpayable",
      "type": "constructor"
    },
    {
      "anonymous": false,
      "inputs": [
        {
          "indexed": false,
          "internalType": "uint256",
          "name": "newBid",
          "type": "uint256"
        }
      ],
      "name": "newHighestBidder",
      "type": "event"
    },
    {
      "inputs": [],
      "name": "BUYER",
      "outputs": [
        {
          "internalType": "address",
          "name": "",
          "type": "address"
        }
      ],
      "stateMutability": "view",
      "type": "function"
    },
    {
      "inputs": [
        {
          "internalType": "uint256",
          "name": "",
          "type": "uint256"
        }
      ],
      "name": "highestBidder",
      "outputs": [
        {
          "internalType": "address",
          "name": "",
          "type": "address"
        }
      ],
      "stateMutability": "view",
      "type": "function"
    },
    {
      "inputs": [],
      "name": "newItem",
      "outputs": [
        {
          "internalType": "address",
          "name": "owner",
          "type": "address"
        },
        {
          "internalType": "address",
          "name": "NFT",
          "type": "address"
        },
        {
          "internalType": "uint256",
          "name": "price",
          "type": "uint256"
        },
        {
          "internalType": "uint256",
          "name": "timeRemaining",
          "type": "uint256"
        }
      ],
      "stateMutability": "view",
      "type": "function"
    },
    {
      "inputs": [
        {
          "internalType": "uint256",
          "name": "bidPrice",
          "type": "uint256"
        }
      ],
      "name": "_placeBid",
      "outputs": [],
      "stateMutability": "payable",
      "type": "function"
    },
    {
      "inputs": [],
      "name": "auctionStart",
      "outputs": [],
      "stateMutability": "nonpayable",
      "type": "function"
    },
    {
      "inputs": [],
      "name": "auctionComplete",
      "outputs": [
        {
          "internalType": "bool",
          "name": "",
          "type": "bool"
        }
      ],
      "stateMutability": "view",
      "type": "function"
    }
  ],
  "bytecode": "0x6080604052336000806101000a81548173ffffffffffffffffffffffffffffffffffffffff021916908373ffffffffffffffffffffffffffffffffffffffff1602179055506000600160006101000a81548173ffffffffffffffffffffffffffffffffffffffff021916908373ffffffffffffffffffffffffffffffffffffffff1602179055506000600260006101000a81548173ffffffffffffffffffffffffffffffffffffffff021916908373ffffffffffffffffffffffffffffffffffffffff16021790555060006003553480156100d957600080fd5b50600260009054906101000a900473ffffffffffffffffffffffffffffffffffffffff16600560000160006101000a81548173ffffffffffffffffffffffffffffffffffffffff021916908373ffffffffffffffffffffffffffffffffffffffff160217905550600160009054906101000a900473ffffffffffffffffffffffffffffffffffffffff16600560010160006101000a81548173ffffffffffffffffffffffffffffffffffffffff021916908373ffffffffffffffffffffffffffffffffffffffff160217905550670de0b6b3a7640000600560020181905550610e10600560030181905550610593806101d36000396000f3fe6080604052600436106100555760003560e01c806342b978f91461005a578063451df52e146100765780634f245ef7146100b3578063a8fa2987146100ca578063cbb39b7f146100f5578063e221227614610123575b600080fd5b610074600480360381019061006f9190610362565b61014e565b005b34801561008257600080fd5b5061009d60048036038101906100989190610362565b61024c565b6040516100aa91906103d0565b60405180910390f35b3480156100bf57600080fd5b506100c861027f565b005b3480156100d657600080fd5b506100df610288565b6040516100ec91906103d0565b60405180910390f35b34801561010157600080fd5b5061010a6102ac565b60405161011a94939291906103fa565b60405180910390f35b34801561012f57600080fd5b5061013861030a565b604051610145919061045a565b60405180910390f35b61015661030a565b1561016057600080fd5b806005600201541061017157600080fd5b8034101561017e57600080fd5b60008054906101000a900473ffffffffffffffffffffffffffffffffffffffff166009600083815260200190815260200160002060006101000a81548173ffffffffffffffffffffffffffffffffffffffff021916908373ffffffffffffffffffffffffffffffffffffffff160217905550806005600201819055506003600081548092919061020d906104a4565b91905055507f882e7c4b6f8bc3f96175fcd7905b2d442d6182852233891e98e55f1e7e42d20c8160405161024191906104ec565b60405180910390a150565b60096020528060005260406000206000915054906101000a900473ffffffffffffffffffffffffffffffffffffffff1681565b42600481905550565b60008054906101000a900473ffffffffffffffffffffffffffffffffffffffff1681565b60058060000160009054906101000a900473ffffffffffffffffffffffffffffffffffffffff16908060010160009054906101000a900473ffffffffffffffffffffffffffffffffffffffff16908060020154908060030154905084565b600060056003015460045461031f9190610507565b421015905090565b600080fd5b6000819050919050565b61033f8161032c565b811461034a57600080fd5b50565b60008135905061035c81610336565b92915050565b60006020828403121561037857610377610327565b5b60006103868482850161034d565b91505092915050565b600073ffffffffffffffffffffffffffffffffffffffff82169050919050565b60006103ba8261038f565b9050919050565b6103ca816103af565b82525050565b60006020820190506103e560008301846103c1565b92915050565b6103f48161032c565b82525050565b600060808201905061040f60008301876103c1565b61041c60208301866103c1565b61042960408301856103eb565b61043660608301846103eb565b95945050505050565b60008115159050919050565b6104548161043f565b82525050565b600060208201905061046f600083018461044b565b92915050565b7f4e487b7100000000000000000000000000000000000000000000000000000000600052601160045260246000fd5b60006104af8261032c565b91507fffffffffffffffffffffffffffffffffffffffffffffffffffffffffffffffff82036104e1576104e0610475565b5b600182019050919050565b600060208201905061050160008301846103eb565b92915050565b60006105128261032c565b915061051d8361032c565b9250827fffffffffffffffffffffffffffffffffffffffffffffffffffffffffffffffff0382111561055257610551610475565b5b82820190509291505056fea2646970667358221220a10abfdb8d079c35acbd9f247b256a5c577a41d8fe68da7407d7add07ed3161e64736f6c634300080e0033",
  "immutableReferences": {},
  "source": "pragma solidity >=0.4.16 <0.9.0;\n\ncontract AuctionHouse{\n\n    address public BUYER = msg.sender;\n    address NFT_ADDRESS = address(0x0); //temporarily just a jpeg\n    address OWNER_ADDRESS = address(0x0); //temporarily no owner\n\n    uint numberOfBids = 0;\n\n    uint startTime;\n\n    struct AuctionItem{\n        address owner;\n        address NFT;\n        uint price; //Will be calculated into wei\n        uint timeRemaining;\n    }\n\n    AuctionItem public newItem;\n    constructor(){\n        newItem.owner = OWNER_ADDRESS;\n        newItem.NFT = NFT_ADDRESS;\n        newItem.price = 1 ether; //need to change this dynamically\n        newItem.timeRemaining = 60 minutes;\n        }\n\n\n    /**\n    Associate highest bid with highest bidder in order to track who will win\n     */\n    mapping(uint => address) public highestBidder;\n    \n    /**\n    Event that will trigger the current bid price to update on front end\n     */\n    event newHighestBidder(uint newBid);\n\n    /**\n    Function to place bid\n     */\n    function _placeBid(uint bidPrice) external payable{\n        require(!auctionComplete());\n        require(newItem.price < bidPrice);\n        require(msg.value >= bidPrice);\n        highestBidder[bidPrice] = BUYER;\n        newItem.price = bidPrice;\n        numberOfBids++;\n        emit newHighestBidder(bidPrice);\n    }\n\n    /**\n    Keep record of starting time    \n     */\n    function auctionStart() public{\n        startTime = block.timestamp;\n    }\n\n    /**\n    Check if the Auction time has been exceeded\n     */\n    function auctionComplete() public view returns(bool){\n        return (block.timestamp >= (startTime + newItem.timeRemaining));\n    }\n\n    /*  ::: Will eventually need to transfer ownership with something like:\n\n    function transferOwner() smt smt (){\n        newItem.owner = BUYER\n        (does one have to relinquish ownership?)\n        :: I may have to import the ERC721 contract from OpenZepplin,\n        :: Perhaps there is also an API of sorts on OpenSeas that will allow for uploading NFT images to other sites then\n        complete the transfers off of OpenSea.\n        }\n\n        ::: Will also need some function to trigger the end of the auction when the clock runs out.\n    fuction goingGoingGone() {\n        if (auctionComplete){\n            initiate transfer of the NFT;\n            load next NFT;\n            initialize new instance of the auction;\n        }\n    }\n     */\n\n}",
  "sourcePath": "/home/cbstonesifer/Auction-House/contracts/Auction.sol",
  "compiler": {
    "name": "solc",
    "version": "0.8.14+commit.80d49f37.Emscripten.clang"
  },
  "schemaVersion": "3.4.7",
  "updatedAt": "2022-06-22T20:55:45.475Z",
  "devdoc": {
    "kind": "dev",
    "methods": {},
    "version": 1
  },
  "userdoc": {
    "events": {
      "newHighestBidder(uint256)": {
        "notice": "Event that will trigger the current bid price to update on front end"
      }
    },
    "kind": "user",
    "methods": {
      "_placeBid(uint256)": {
        "notice": "Function to place bid"
      },
      "auctionComplete()": {
        "notice": "Check if the Auction time has been exceeded"
      },
      "auctionStart()": {
        "notice": "Keep record of starting time    "
      },
      "highestBidder(uint256)": {
        "notice": "Associate highest bid with highest bidder in order to track who will win"
      }
    },
    "version": 1
  }
}